:100000007EC0000097C0000095C0000093C00000B3
:1000100091C000008FC000008DC000008BC00000A8
:1000200089C0000087C0000085C0000062C20000D7
:100030000BC300007FC000007DC000007BC000003B
:1000400079C0000077C0000075C0000073C00000D8
:1000500071C000006FC000006DC0000047C100000B
:1000600069C0000067C0000065C0000063C00000F8
:1000700061C000000000320341007200640075009E
:1000800069006E006F00200028007700770077007D
:100090002E00610072006400750069006E006F0040
:1000A0002E00630063002900000004030904090214
:1000B0003E00020100C032090400000102020100FA
:1000C000052400011004240206052406000107058A
:1000D00082030800FF09040100020A00000007056E
:1000E00004024000010705830240000112011001D3
:1000F000020000084123440001000102DC01112438
:100100001FBECFEFD2E0DEBFCDBF11E0A0E0B1E077
:10011000EEE9FCE002C005900D92A631B107D9F7D7
:1001200022E0A6E1B1E001C01D92AF32B207E1F7D3
:1001300061D0A9C565CF9C01DC01AE57BF4FED91E1
:10014000FC9111978191A90140585F4FE417F50781
:1001500009F4F901ED93FC934FB7F894F901EC57CA
:10016000FF4F9081915090834FBF08959C01FC01F7
:10017000E058FF4FA081B1816C93808191810196FD
:100180008E179F0709F4C901918380839FB7F89464
:10019000F901EC57FF4F80818F5F80839FBF0895E7
:1001A00084B7877F84BF0FB6F894A89580916000CC
:1001B000886180936000109260000FBE87E690E037
:1001C0009093CD008093CC0086E08093CA0010927B
:1001D000C80088E18093C900539A5A9A8AB1806313
:1001E0008AB98BB180638BB975D184E085BD5F9A84
:1001F000579A0895D5DF2FB7F8948EE991E0909340
:100200001F0280931E0290932102809320022FBF31
:100210002FB7F89489E191E090939A018093990126
:1002200090939C0180939B012FBF7894D3E09FB75C
:10023000F894809122029FBF803849F080E091E0DD
:10024000F2D4BC0197FD03C08EE991E08FDF8FB738
:10025000F894C0919D018FBFA89902C0C13610F1DA
:10026000A89A80919D01882319F05D98D09316017A
:10027000C11130C080911601882341F08091160190
:10028000815080931601811101C05D9A8091170100
:10029000882341F0809117018150809317018111CB
:1002A00001C05C9A9FB7F894809122029FBF882377
:1002B00061F08EE991E03FDF9091C80095FFFCCF9F
:1002C0008093CE005C98D093170180E091E09CD49D
:1002D000F3D3ADCF89E191E02EDF682F80E091E08C
:1002E00045D4C150C5CF80E091E0F7C31F920F9273
:1002F0000FB60F9211242F933F934F935F936F93F9
:100300007F938F939F93AF93BF93EF93FF936091EE
:10031000CE008EB3843019F489E191E027DFFF919C
:10032000EF91BF91AF919F918F917F916F915F916D
:100330004F913F912F910F900FBE0F901F901895E6
:100340009C01DA01832F99278230910509F18330CE
:10035000910539F0019709F180E090E020E030E06C
:100360000EC0C9019927213069F08230910569F0EA
:10037000EAEAF0E0892B81F7849190E09F012D93C8
:100380003C930895E6E7F0E0F7CFE4E7F0E0F4CF40
:100390008EE390E02EEA30E0F2CF82E190E02CEEA6
:1003A00030E0EDCF8093E900EBEEF0E080818160FA
:1003B0008083EDEEF0E010826093EC00408380914A
:1003C000EE00881F8827881F08958091260287FFE6
:1003D00011C08091E80082FF06C08091E8008B7711
:1003E0008093E80003C08EB38111F3CF08958EB3DC
:1003F0008823E1F38091E80080FFF9CF8091E80045
:100400008E77EECF2091E4003091E50095E6A901CA
:100410008091EC008170882331F08091E80080FFAA
:1004200006C080E008952091E80022FD1AC08EB336
:10043000882391F0853091F08091EB0085FD10C00C
:100440002091E4003091E5004217530709F39150E1
:100450009111DDCF84E0089582E0089583E008954E
:1004600081E0089540D042D08091D800982F9F77A6
:100470009093D80080688093D80084E089BD89B5C6
:10048000826089BD09B400FEFDCF8091D8008F7DC8
:100490008093D8001EBA1092250210922302109267
:1004A000240242E060E080E07DDF8091E1008E7F09
:1004B0008093E1008091E20081608093E20080916E
:1004C000E20088608093E2008091E0008E7F80935C
:1004D000E0000895E3E6F0E080818E7F808381E094
:1004E00080932E02BFCF1092E20008951092E10097
:1004F00008951F920F920FB60F9211242F933F93DE
:100500004F935F936F937F938F939F93AF93BF931B
:10051000EF93FF938091E10080FF1BC08091E20088
:1005200080FF17C08091E1008E7F8093E100809171
:10053000E2008E7F8093E2008091E20080618093F0
:10054000E2008091D80080628093D80019BC1EBA66
:1005500001D28091E10084FF28C08091E20084FFF5
:1005600024C084E089BD89B5826089BD09B400FEDC
:10057000FDCF8091D8008F7D8093D8008091E100DD
:100580008F7E8093E1008091E2008F7E8093E20075
:100590008091E20081608093E200809125028823AF
:1005A00009F44CC084E08EBBD5D18091E10083FF7B
:1005B00026C08091E20083FF22C08091E100877F06
:1005C0008093E10082E08EBB109225028091E100D1
:1005D0008E7F8093E1008091E2008E7F8093E20025
:1005E0008091E20080618093E20042E060E080E080
:1005F000D9DE8091F00088608093F000ABD18091CB
:10060000E10082FF0AC08091E20082FF06C0809173
:10061000E1008B7F8093E1009DD1FF91EF91BF912D
:10062000AF919F918F917F916F915F914F913F918A
:100630002F910F900FBE0F901F9018958091E3009F
:1006400087FDB0CF81E0AFCF1F920F920FB60F9210
:100650001124FF920F931F932F933F934F935F9318
:100660006F937F938F939F93AF93BF93CF93DF93BA
:10067000EF93FF93C9EED0E088818770F82E18823F
:1006800000EF10E0F8018081877F808378941DD08F
:10069000F8941882F801808188608083F882FF9145
:1006A000EF91DF91CF91BF91AF919F918F917F910A
:1006B0006F915F914F913F912F911F910F91FF90FB
:1006C0000F900FBE0F901F9018950F931F93CF930D
:1006D000DF93CDB7DEB7AA970FB6F894DEBF0FBE93
:1006E000CDBF86E292E0FC0101962091F1002083CB
:1006F00022E08E329207B9F72DD18091E80083FF76
:1007000035C080912602909127029A3078F5E92F22
:10071000F0E0EB5BF94FB1C2803879F0823831F507
:1007200080912A0287708093E9008091EB0085FB1D
:10073000882780F91092E90006C0809124029091E8
:100740002302911182609091E800977F9093E800D6
:100750008093F1001092F1008091E8008E772AC01A
:1007600081111DC080912802813041F18091E80003
:1007700083FF0AC08091EB0080628093EB00809140
:10078000E800877F8093E800AA960FB6F894DEBF52
:100790000FBECDBFDF91CF911F910F910895823091
:1007A00029F780912802882381F01092E900809136
:1007B000E800877F8093E80008DED8CF81E093309F
:1007C00009F080E080932302F0CF80912A028770A5
:1007D000882361F28093E9002091EB0020FFE5CFB0
:1007E000933031F48091EB0080628093EB00DDCF99
:1007F0009091EB0090619093EB0021E030E0A90133
:1008000002C0440F551F8A95E2F74093EA00109208
:10081000EA008091EB008860E8CF8111A7CF1091AA
:1008200028021F770FB7F8948091E800877F8093A4
:10083000E800CBDD8091E80080FFFCCF82E0111161
:1008400083E08EBB8091E3008078812B8093E3006E
:100850008091E30080688093E3000FBF87CF8058CA
:10086000823008F083CF80912802909129028C3D3C
:1008700053E0950791F583E08A838AE289834FB735
:10088000F894DE01139620E03EE051E2E32FF0E021
:1008900050935700849120FF03C082958F703F5F73
:1008A0008F708A30C0F0895C90E08D939D932F5FAC
:1008B000243161F74FBF8091E800877F8093E80083
:1008C0006AE270E0CE01019646D08091E8008B7715
:1008D0008093E8004BCF805DE7CFAE014F5F5F4F65
:1008E00060912A022DDDBC01892B09F43FCF809154
:1008F000E800877F8093E80089819A8184D0E5CFE2
:10090000803809F033CF8091E800877F8093E8003A
:10091000809125028093F1001FCF811127CF909104
:100920002802923008F022CF8091E800877F8093E0
:10093000E8009093250249DD80912502882321F06B
:1009400084E08EBBD0DC12CF8091E30087FDF8CF2E
:1009500081E0F7CF0895AB0120912C0230912D0258
:100960002617370718F0672B69F09A0160E0211508
:10097000310571F461110CC08091E80082FF37C02D
:1009800080E008952091E8002E772093E800EDCFD5
:100990004EB34423B1F1453081F14091E80043FD6D
:1009A0002EC04091E80042FDE7CF4091E80040FFB3
:1009B000DECF4091F20050E02115310519F04830AA
:1009C000510558F061E04830510509F060E0409170
:1009D000E8004E774093E800CACFFC0181918093F4
:1009E000F100215031094F5F5F4FCF01E5CF8EB34A
:1009F000882339F0853009F0BFCF83E0089581E086
:100A0000089582E00895AB0120912C0230912D02CF
:100A10002617370718F0672B69F09A0160E0211557
:100A2000310571F461110CC08091E80082FF38C07B
:100A300080E008952091E8002E772093E800EDCF24
:100A40004EB34423B9F1453089F14091E80043FDAC
:100A50002FC04091E80042FDE7CF4091E80040FF01
:100A6000DECF4091F20050E0FC012115310519F074
:100A70004830510560F0CF0161E04830510509F080
:100A800060E04091E8004E774093E800C8CF849141
:100A90008093F100215031094F5F5F4F3196E5CFD0
:100AA0008EB3882339F0853009F0BECF83E00895F6
:100AB00081E0089582E00895CF938EB3882359F0A2
:100AC000C091E900C7701092E9008091E80083FDB1
:100AD000FCDDC093E900CF9108951F93CF93DF937E
:100AE000EC01FC013D9689E0DF011D928A95E9F752
:100AF00011E0898181131DC0EA81FB818C8121E095
:100B000062E0982F990F990F48E050E080E04E176F
:100B10005F0740F1482F4295407F492B4260629524
:100B2000660F660F607C622B812F3CDC81110CC04C
:100B30000FC08D81811305C0EE81FF81888520E083
:100B4000DFCF8985811741F01F5F153091F681E075
:100B5000DF91CF911F910895EA85FB858C8521E077
:100B600063E0CFCF8F5F440F551FD1CFCF93FC01F0
:100B7000C62F8EB38430E9F487859089A189B28924
:100B8000892B8A2B8B2BA9F081818093E90080919E
:100B9000E80085FF05C0C093F10080E0CF91089583
:100BA0008091E8008E778093E8002CDC882399F30D
:100BB000F5CF82E0F3CFFC018EB3843019F5878541
:100BC0009089A189B289892B8A2B8B2BD9F08181BD
:100BD0008093E9008091F200811102C080E00895C5
:100BE0009091E8008091E8008E778093E80095FD71
:100BF000F5CF08DC811107C08091E8008E778093E3
:100C0000E800ECCF82E00895FC018EB3843051F40B
:100C100087859089A189B289892B8A2B8B2B11F02A
:100C2000CF01C9CF0895FC018EB3843019F08FEF46
:100C30009FEF089587859089A189B289892B8A2B96
:100C40008B2BA9F385818093E9008091E80082FFD6
:100C5000EECF8091F200882369F08091F10090E05E
:100C60002091F200211105C02091E8002B772093FC
:100C7000E80008958FEF9FEFF3CFEE0FFF1F059071
:100C8000F491E02D0994F894FFCF8C03B003B603E0
:0E0C9000B003B6030D042F04B60380048D04D8
:100C9E0000034000000440000002080000000000B5
:060CAE0000000000000040
:00000001FF
